:10000000C1EF01F0EA6A0F0EE96EEF500DE0060E47
:10001000016E006A002EFED7012EFBD77B0E006E0C
:10002000002EFED7EF2EF3D712008E0E006E11C0F9
:1000300001F010C002F0036A015209E102C001F0B0
:10004000026A080E005E015202E1006A08D0D890F0
:1000500001BE04D0023601360006F9D7019EF6EF44
:1000600001F01050D8B471D0006E1450D8B46DD0D7
:10007000002604E3810E002668E204D07F0E005EB5
:1000800064E363E011C018F01550181A118E158E34
:1000900013501702F4CF1AF012501602F4CF03F0E7
:1000A000F3CF19F01702F3501A26F4501922000E5C
:1000B000032213501602F3501A26F4501922000E90
:1000C000026A0322022211501702F3501926F4503B
:1000D0000322000E022211501602F3500326F450A0
:1000E0000222000E016A012213501502F350192654
:1000F000F4500322000E0222012212501502F35086
:100100000326F4500222000E012211501502F35072
:100110000226F4500122002A01BE05D0193603360A
:10012000023601360006000E19AE0AD0032A02225A
:100130000122015005E1025003E1035001E1002AD0
:1001400018BE018E18AE019E04D0006A016A026AD0
:10015000036A07EF02F01250D8B4A5D01E6E1650F5
:10016000D8B4A1D01E5E05E37F0E1E26D8B09BD06A
:1001700006D0810E1E5ED8A096D0D8B494D01EC0F2
:1001800000F0016A026A036A1D6A13C01CF01C8E2B
:1001900014C01BF015C01AF0190E1E6E19501A5E0D
:1001A0000DE2010E1B5E0AE21C5E08E21D5E06E225
:1001B0001D2A1C2A1B2A19501A2628D018501B5EEB
:1001C00012E2010E1C5E0FE21D5E0DE21D2A1C2ACA
:1001D00018501B2619501A2619E31B2A17E11C2A4E
:1001E00015E11D2A13D0175080091C5E0EE2010E86
:1001F0001D5E0BE21D2A175080091C2618501B2675
:10020000E9E31C2AE7E11D2AE5D703801E2E01D071
:100210000BD0D8901A361B361C361D36D8900336B4
:10022000023601361F36BAD71FA006D0D890013249
:10023000023203321F3202D0000635E01FBE1ED04C
:10024000D8901A361B361C361D3619501A5E07E236
:10025000010E1B5E04E21C5E02E21D5E1AE31850F2
:100260001B5E05E2010E1C5E02E21D5E12E31750EA
:1002700080091C5E03E2010E1D5E0BE3032A09E107
:10028000022A07E1012A05E1002A0DE001320232CB
:10029000033213C01EF017501E1A1EAE02D0018E7C
:1002A00006D0019E04D0006A016A026A036A1EEF4A
:1002B00002F08E0E006E0E50005E0FC002F010C0F5
:1002C00001F0028E005209E0D890025202E1015280
:1002D00004E002320132002EF7D70FAE05D0011E26
:1002E000021E012AD8B4022A27EF02F00A500E5C3F
:1002F00005E38B9094908B82949204D08B809490A1
:100300008B9294922CEF02F01150016A105C03E280
:1003100010C000F00CD0006A080E126E10360036C5
:100320001150005CD8B0006E0136122EF7D71200C3
:100330000EC010F00A0E116EE7DF00C00BF00EC009
:1003400010F00A0E116EE0DF01C010F00A0E116EFF
:10035000DBDF00C00CF0956A0CC08CFF8D8096909E
:100360008D929692020E0F6E4DDE956A0BC08CFF39
:100370008D9096908D829692020E0F6E43DE2FEF37
:1003800002F0F86AD09E810EAF6EA60EAC6E900E93
:10039000AB6E0F0E0A6EC180C182C184C196070E7A
:1003A000B46E046A056AC190C182C184C186000E20
:1003B000016EC250C70B0110C26EC19CC28CC28EAE
:1003C000C18EC280D26AC00EF2120A0E0F6E1ADE01
:1003D000C284C2B4FED7C4CF03F0C3CF0EF0C4CFE3
:1003E0000FF0C4CF11F0C3CF10F01FD603C013F02D
:1003F00002C012F001C011F000C010F08F0E176E95
:10040000C20E166E750E156E7D0E146E2AD603C0C2
:1004100011F002C010F001C00FF000C00EF003C0D8
:1004200015F002C014F001C013F000C012F0196AF8
:10043000186A200E176E810E166E8DD603C011F04D
:1004400002C010F001C00FF000C00EF032D701C0A2
:100450000DF00DC00EF04AD70DC00EF069D7B8D719
:02046000030097
:020000040030CA
:0E00000000220E0E000081000FC00FE00F4026
:00000001FF
;PIC18F458
;CRC=6157  CREATED="18-mai-19 14:47"
