:100000000AEF01F0EA6A0B0EE96EEF500EE00C0EFB
:10001000016E006A002EFED7012EFBD7F70E006E90
:10002000002EFED700D0EF2EF2D728EF01F0949EDD
:100030008B9E080E016E00D00000018E0ED0019E36
:100040000B32D8B08B8ED8A08B9E018C06D0019C31
:10005000012EF6D700D000008B8EA70EE96EE92E98
:10006000FED700D001BEEBD701BCF1D730EF01F0D5
:100070008E0E006E0CC001F00BC002F0036A01523C
:1000800009E102C001F0026A080E005E015202E1BD
:10009000006A08D0D89001BE04D0023601360006AE
:1000A000F9D7019E34EF01F00B50D8B471D0006E37
:1000B0000F50D8B46DD0002604E3810E002668E20C
:1000C00004D07F0E005E64E363E00CC013F01050B8
:1000D000131A0C8E108E0E501202F4CF15F00D5024
:1000E0001102F4CF03F0F3CF14F01202F3501526EF
:1000F000F4501422000E03220E501102F350152664
:10010000F4501422000E026A032202220C50120242
:10011000F3501426F4500322000E02220C50110258
:10012000F3500326F4500222000E016A01220E5001
:100130001002F3501426F4500322000E0222012272
:100140000D501002F3500326F4500222000E01223B
:100150000C501002F3500226F4500122002A01BE76
:1001600005D014360336023601360006000E14AEF2
:100170000AD0032A02220122015005E1025003E1C4
:10018000035001E1002A13BE018E13AE019E04D07C
:10019000006A016A026A036A45EF01F00CC013F0BD
:1001A0001050131A13AE05D0D894D8900CBED88036
:1001B0002FD00CC013F00FC014F00B50145E06E0EB
:1001C00013AE26D0D850010AD86E22D010C014F039
:1001D0000C50145E06E013AE1BD0D850010AD86E46
:1001E00017D011C014F00D50145E06E013AE10D0FD
:1001F000D850010AD86E0CD012C014F00E50145E04
:1002000006E013AE05D0D850010AD86E01D0D890C0
:100210005CEF01F0F86AD09E949E8B8EC180C18203
:10022000C184C196070EB46E1E0E066EC190C192B7
:10023000C184C196C19CC28CC29EC18EC280000E78
:10024000016EC250C70B0110C26E0A0E0B6EDAD6D9
:10025000C284C2B4FED7C3CF05F005C00BF0E7D609
:100260000C6A05C00BF004D703C00EF002C00DF0FD
:1002700001C00CF000C00BF0DD0E126E240E116EEA
:10028000100E106E820E0F6E0FD703C00AF002C060
:1002900009F001C008F000C007F00E6A0D6A700E88
:1002A0000C6E830E0B6E0AC012F009C011F008C06C
:1002B00010F007C00FF072D705E38B8294928B94F5
:1002C000949404D08B9294928B849494B8D7030026
:020000040030CA
:0E00000000220E0E000081000FC00FE00F4026
:00000001FF
;PIC18F458
;CRC=B51D  CREATED="09-mai-19 14:22"
